:100000000C9446000C9465000C9465000C946500FB
:100010000C9465000C9465000C9465000C946500CC
:100020000C9465000C9465000C9465000C946500BC
:100030000C9465000C94D9010C9465000C94650037
:100040000C9465000C9465000C9465000C9465009C
:100050000C9465000C9465000C9465000C9465008C
:100060000C9465000C9465000C9465000C9465007C
:100070000C9465000C9465000C9465000C9465006C
:100080000C9465000C9465000C94650011241FBE4F
:10009000CFEFD0E4DEBFCDBF11E0A0E0B1E0E6E8F5
:1000A000F2E100E00BBF02C007900D92AA32B10747
:1000B000D9F721E0AAE2B1E001C01D92A135B20753
:1000C000E1F70E9404060C9441090C940000CF93C0
:1000D000DF93CDB7DEB781E00E948E000000DF9194
:1000E000CF910895CF93DF93CDB7DEB784E690E04C
:1000F0000E94320188E30E948E0086E00E948E00FA
:100100008FE00E948E0081E00E948E008AE090E0E5
:100110000E9432010000DF91CF910895CF93DF93C9
:100120001F92CDB7DEB789838BE290E02BE230E0FF
:10013000F90120812F7BFC01208385E290E0298159
:10014000FC0120838BE290E02BE230E0F90120817A
:100150002068FC01208300008BE290E02BE230E07D
:10016000F90120812F77FC01208382E090E00E943A
:10017000320100000F90DF91CF910895CF93DF936C
:100180001F92CDB7DEB789838BE290E02BE230E09F
:10019000F90120812064FC01208385E290E029811F
:1001A000FC0120838BE290E02BE230E0F90120811A
:1001B0002068FC01208300008BE290E02BE230E01D
:1001C000F90120812F77FC01208381E090E00E94DB
:1001D000320100000F90DF91CF910895CF93DF930C
:1001E00000D000D0CDB7DEB78A837C836B830E94BA
:1001F00067008A81898311C0898191E0980F998372
:100200000E941B018B819C819C012F5F3F4F3C838F
:100210002B83FC0180810E94BE008B819C81FC01AC
:100220008081882349F700000F900F900F900F9066
:10023000DF91CF910895CF93DF931F92CDB7DEB7B3
:1002400089838981813128F4898181580E948E00B7
:1002500004C0898181550E948E0000000F90DF91BB
:10026000CF910895CF93DF9300D000D000D0CDB7C9
:10027000DEB79E838D831A82198213C01C821B8273
:1002800006C000008B819C8101969C838B838B81AF
:100290009C8187309340ACF389819A8101969A833F
:1002A000898329813A818D819E812817390734F30A
:1002B000000026960FB6F894DEBF0FBECDBFDF91CB
:1002C000CF910895CF93DF9300D01F92CDB7DEB7C3
:1002D00089837B836A8389818A3031F48A819B8117
:1002E000BC018DE00E94620180EC90E0FC01808105
:1002F000882F90E080729927892BB1F386EC90E0EB
:100300002981FC01208380E090E00F900F900F90F6
:10031000DF91CF910895CF93DF93CDB7DEB781E81A
:1003200090E02BE0FC01208388E890E02DE730E0AE
:10033000FC01318320838FE690E022E0FC012083E2
:1003400084E890E0FC011182108280910E0190916E
:100350000F01A0911001B091110180932B01909396
:100360002C01A0932D01B0932E018FE590E02FE595
:1003700030E0F90120812068FC0120830000DF913A
:10038000CF910895CF93DF93CDB7DEB781E890E0AA
:10039000FC0110820000DF91CF910895CF93DF938D
:1003A000CDB7DEB781E080932A010000DF91CF91C5
:1003B00008951F920F9200905F000F9211240090F9
:1003C0005B000F922F933F934F935F936F937F93B5
:1003D0008F939F93AF93BF93EF93FF93CF93DF934D
:1003E000CDB7DEB780912B0190912C01A0912D010A
:1003F000B0912E010197A109B10980932B0190932F
:100400002C01A0932D01B0932E0180912B0190918E
:100410002C01A0912D01B0912E01892B8A2B8B2BC1
:1004200091F40E94CE0180910E0190910F01A09154
:100430001001B091110180932B0190932C01A09396
:100440002D01B0932E010000DF91CF91FF91EF912C
:10045000BF91AF919F918F917F916F915F914F91DC
:100460003F912F910F9000925B000F9000925F00E0
:100470000F901F901895CF93DF9300D000D0CDB789
:10048000DEB769837A838B839C8389819A81AB8170
:10049000BC8180930E0190930F01A0931001B09343
:1004A000110180910E0190910F01A0911001B09166
:1004B000110180932B0190932C01A0932D01B093F7
:1004C0002E0100000F900F900F900F90DF91CF91B1
:1004D0000895CF93DF9300D01F92CDB7DEB7898305
:1004E0006A834B838B81882371F08A81282F30E0C7
:1004F00081E090E002C0880F991F2A95E2F7982FBB
:100500008981892B0EC08A81282F30E081E090E01C
:1005100002C0880F991F2A95E2F7982F909589813C
:1005200089230F900F900F90DF91CF910895CF9373
:10053000DF9300D0CDB7DEB789836A838A81282F05
:1005400030E081E090E002C0880F991F2A95E2F721
:10055000982F898189230F900F90DF91CF91089573
:100560000F931F93CF93DF93CDB7DEB708E210E070
:1005700040E064E08FEF0E946902F8018083000090
:1005800086E290E0FC018081809560E00E94970205
:10059000882311F081E3D3C086E290E0FC018081E2
:1005A000809561E00E949702882311F084E3C7C020
:1005B00086E290E0FC018081809562E00E949702D3
:1005C000882311F087E3BBC086E290E0FC018081C4
:1005D000809563E00E949702882311F08AE2AFC001
:1005E00008E210E040E065E08FEF0E946902F80148
:1005F0008083000086E290E0FC018081809560E0CD
:100600000E949702882311F082E399C086E290E06D
:10061000FC018081809561E00E949702882311F09F
:1006200085E38DC086E290E0FC018081809562E0E8
:100630000E949702882311F088E381C086E290E04F
:10064000FC018081809563E00E949702882311F06D
:1006500080E375C008E210E040E066E08FEF0E94A2
:100660006902F8018083000086E290E0FC0180814D
:10067000809560E00E949702882311F083E35FC0B9
:1006800086E290E0FC018081809561E00E94970203
:10069000882311F086E353C086E290E0FC0180815C
:1006A000809562E00E949702882311F089E347C099
:1006B00086E290E0FC018081809563E00E949702D1
:1006C000882311F083E23BC008E210E040E067E0DD
:1006D0008FEF0E946902F8018083000086E290E0BB
:1006E000FC018081809560E00E949702882311F0D0
:1006F00081E425C086E290E0FC018081809561E084
:100700000E949702882311F082E419C086E290E0EB
:10071000FC018081809562E00E949702882311F09D
:1007200083E40DC086E290E0FC018081809563E067
:100730000E949702882311F084E401C080E0DF91D9
:10074000CF911F910F910895CF93DF93CDB7DEB76F
:100750002C970FB6F894DEBF0FBECDBF6D837E839E
:100760008F83988729873A874B875C878D819E8105
:10077000AF81B88529853A854B855C85BC01CD0163
:100780000E948B07DC01CB0189839A83AB83BC83F6
:1007900089819A81AB81BC81892B8A2B8B2B29F48F
:1007A00089859A85AB85BC8511C089859A85AB857D
:1007B000BC858D839E83AF83B88789819A81AB8105
:1007C000BC8189879A87AB87BC87D0CFBC01CD011C
:1007D0002C960FB6F894DEBF0FBECDBFDF91CF9140
:1007E0000895CF93DF93CDB7DEB78AE790E02AE78D
:1007F00030E0F9012081206EFC0120830000DF91B0
:10080000CF910895CF93DF93CDB7DEB78CE790E01B
:1008100020E4FC0120838AE790E02AE730E0F90138
:1008200020812064FC01208300008AE790E0FC0125
:100830008081882F90E080719927892BB1F388E718
:1008400090E0FC0180819181DF91CF910895CF9359
:10085000DF93CDB7DEB78CE790E021E4FC01208385
:100860008AE790E02AE730E0F90120812064FC016A
:10087000208300008AE790E0FC018081882F90E0CF
:1008800080719927892BB1F388E790E0FC01808182
:100890009181DF91CF9108950F931F93CF93DF93B1
:1008A00000D000D0CDB7DEB769837A838B839C8379
:1008B0008091310190913201A0913301B0913401C6
:1008C0009C01AD0169817A818B819C810E94AD0779
:1008D000882309F477C020E030E0A90169817A819A
:1008E0008B819C810E94AD07882351F481E990E0BF
:1008F00021E930E0F90120812870FC01208309C042
:1009000081E990E021E930E0F90120812360FC01D8
:10091000208328E539E344E75FE369817A818B81AD
:100920009C810E94AD07882344F488E990E02FEF72
:100930003FEFFC013183208334C020E034E244EFF8
:1009400056E469817A818B819C810E94CF081816B8
:1009500034F488E990E0FC011182108222C008E999
:1009600010E020E030E040E053E469817A818B813F
:100970009C810E94D408DC01CB019C01AD0160E0A8
:1009800074E284EF9AE40E94B207DC01CB01BC015F
:10099000CD010E942408DC01CB010197F80191836D
:1009A000808384E990E0FC011182108289819A8120
:1009B000AB81BC818093310190933201A0933301CC
:1009C000B093340100000F900F900F900F90DF91C3
:1009D000CF911F910F910895CF93DF93CDB7DEB7DD
:1009E00080E990E020E4FC01208381E990E02BE0A5
:1009F000FC01208360E070E0CB010E944C04000009
:100A0000DF91CF910895CF93DF93CDB7DEB780E923
:100A100090E0FC01108281E990E0FC01108200006E
:100A2000DF91CF910895CF93DF9300D01F92CDB780
:100A3000DEB79B838A8386E290E0FC01808180950B
:100A4000807E89839091300181E0992309F080E0D4
:100A5000809330018A819B818130910531F0823011
:100A60009105F1F0892B71F026C08981803239F42B
:100A700081E090E09B838A8310924E011FC01B820D
:100A80001A821CC08981803241F482E090E09B830D
:100A90008A8381E080934E0111C01B821A820EC0AE
:100AA00090914E0181E0992309F480E0882F90E035
:100AB0009B838A8303C01B821A8200008A819B81E8
:100AC0008130910509F444C082309105A1F1892B50
:100AD00009F041C0809117018823E1F50E942704A5
:100AE0008F3E924038F084E080934F0181E0809304
:100AF0004D0130C00E9402048E35914038F482E1ED
:100B000080934F0182E080934D0124C00E94020433
:100B10008F3E924020F084E080934D011BC00E94E4
:100B200027048E35914020F488E080934D0112C057
:100B300010924F010FC09091170181E0992309F0A5
:100B400080E08093170110922F0110924F0103C093
:100B5000000001C000008A819B810F900F900F90D0
:100B6000DF91CF910895CF93DF9300D0CDB7DEB75B
:100B70009A83898389819A81009719F0019721F0DE
:100B800006C01A82198206C01A82198203C01A820C
:100B90001982000089819A81009719F0019789F0E4
:100BA0002CC085E290E030914F0120913001320F4E
:100BB000209130012295220F207E230FFC012083FB
:100BC0001CC080912F01882391F480911501909190
:100BD0001601982F80E2891B68E171E00E94EE0007
:100BE00080914B0190914C010E941B0105C06FE167
:100BF00071E081E00E94EE00000089819A810F90EF
:100C00000F90DF91CF9108950F931F93CF93DF93B0
:100C1000CDB7DEB72F970FB6F894DEBF0FBECDBFAE
:100C200081E290E0FC01108282E290E02FEFFC0173
:100C3000208384E290E02FEFFC01208385E290E0A6
:100C4000FC01108287E290E0FC01108288E290E0D3
:100C50002FEFFC0120838AE290E02FEFFC0120833C
:100C60008BE290E0FC0110820E9472000E94F1036E
:100C70000E94EC0485E391E09D878C8780E491E0FD
:100C80009F878E8782E090E09A8789878FEF8B8796
:100C90008B85809335018EE190E0A0E0B0E08093F9
:100CA000360190933701A0933801B09339018091B8
:100CB000360190913701A0913801B09139018093AC
:100CC0003A0190933B01A0933C01B0933D0183E135
:100CD00095E090933F0180933E018B858093400186
:100CE0008AE090E0A0E0B0E080934101909342015F
:100CF000A0934301B093440180914101909142013E
:100D0000A0914301B0914401809345019093460125
:100D1000A0934701B093480183EB95E090934A017B
:100D2000809349018C859D85FC0181819281A381FD
:100D3000B48189839A83AB83BC8381E090E09E83F6
:100D40008D8325C08D819E81880F991F9E012F5F05
:100D50003F4F820F931F0B96FC0180819181FC0114
:100D6000218132814381548189819A81AB81BC8107
:100D7000BC01CD010E94A403DC01CB0189839A83CD
:100D8000AB83BC838D819E8101969E838D832D8153
:100D90003E8189859A8528173907A0F289819A8131
:100DA000AB81BC81BC01CD010E943B020E948B0142
:100DB00018861F82A0C08F819885880F991F9E0179
:100DC0002F5F3F4F820F931F0B96FC018081918113
:100DD000FC0125813681478150858F819885880F58
:100DE000991FBE016F5F7F4F860F971F0B96FC0107
:100DF00080819181FC0181819281A381B481281736
:100E000039074A075B0709F045C08F819885880F2D
:100E1000991F9E012F5F3F4F820F931F0B96FC017E
:100E2000008111818F819885880F991F9E012F5F06
:100E30003F4F820F931F0B96FC0180819181FC0133
:100E4000218532858F819885880F991FAE014F5F6C
:100E50005F4F840F951F0B96FC0180819181FC01EF
:100E60008081082E000C990BF9010995F801808307
:100E70008F819885880F991F9E012F5F3F4F820FAA
:100E8000931F0B96FC0180819181FC0115821682D3
:100E9000178210868F819885880F991F9E012F5F7A
:100EA0003F4F820F931F0B96FC01608171818F81F0
:100EB0009885880F991F9E012F5F3F4F820F931FC8
:100EC0000B96FC0180819181FC012581368147814F
:100ED000508589819A81AB81BC81820F931FA41FA9
:100EE000B51FFB0185839683A783B0878F81988583
:100EF000019698878F832F81388589859A85281751
:100F0000390708F458CF000080912A018823E1F3C3
:100F100010922A014DCFA1E21A2EAA1BBB1BFD0184
:100F20000DC0AA1FBB1FEE1FFF1FA217B307E407C8
:100F3000F50720F0A21BB30BE40BF50B661F771F20
:100F4000881F991F1A9469F7609570958095909500
:100F50009B01AC01BD01CF0108950E945A0808F41D
:100F600081E008950E94C6070C9495080E948E089F
:100F700058F00E94870840F029F45F3F29F00C9454
:100F80007E0851110C94C9080C9484080E94A6088C
:100F900068F39923B1F3552391F3951B550BBB27A8
:100FA000AA2762177307840738F09F5F5F4F220FED
:100FB000331F441FAA1FA9F335D00E2E3AF0E0E8E4
:100FC00032D091505040E695001CCAF72BD0FE2F2E
:100FD00029D0660F771F881FBB1F261737074807C2
:100FE000AB07B0E809F0BB0B802DBF01FF2793587A
:100FF0005F4F3AF09E3F510578F00C947E080C94B8
:10100000C9085F3FE4F3983ED4F3869577956795DA
:10101000B795F7959F5FC9F7880F911D96958795AE
:1010200097F90895E1E0660F771F881FBB1F6217CD
:1010300073078407BA0720F0621B730B840BBA0B8B
:10104000EE1F88F7E09508950E942B086894B1116F
:101050000C94C90808950E94AE0888F09F5798F034
:10106000B92F9927B751B0F0E1F0660F771F881FAD
:10107000991F1AF0BA95C9F714C0B13091F00E94C7
:10108000C808B1E008950C94C808672F782F882706
:10109000B85F39F0B93FCCF3869577956795B395EE
:1010A000D9F73EF490958095709561957F4F8F4F5D
:1010B0009F4F0895990F0008550FAA0BE0E8FEEF27
:1010C00016161706E807F907C0F012161306E4070C
:1010D000F50798F0621B730B840B950B39F40A2605
:1010E00061F0232B242B252B21F408950A2609F4E3
:1010F000A140A6958FEF811D811D089597F99F67E7
:1011000080E870E060E008959FEF80EC089500248F
:101110000A941616170618060906089500240A945C
:1011200012161306140605060895092E0394000CE2
:1011300011F4882352F0BB0F40F4BF2B11F460FF71
:1011400004C06F5F7F4F8F4F9F4F089557FD90589A
:10115000440F551F59F05F3F71F04795880F97FB7B
:10116000991F61F09F3F79F0879508951216130635
:101170001406551FF2CF4695F1DF08C01616170664
:101180001806991FF1CF8695710561050894089599
:10119000E894BB2766277727CB0197F908950E942B
:1011A0005A0808F48FEF08950E94E7080C949508F8
:1011B0000E94870838F00E948E0820F0952311F0D5
:1011C0000C947E080C94840811240C94C9080E9485
:1011D000A60870F3959FC1F3950F50E0551F629FCD
:1011E000F001729FBB27F00DB11D639FAA27F00D80
:1011F000B11DAA1F649F6627B00DA11D661F829FA7
:101200002227B00DA11D621F739FB00DA11D621F8B
:10121000839FA00D611D221F749F3327A00D611DA8
:10122000231F849F600D211D822F762F6A2F11248A
:101230009F5750409AF0F1F088234AF0EE0FFF1FBD
:10124000BB1F661F771F881F91505040A9F79E3F14
:10125000510580F00C947E080C94C9085F3FE4F3BC
:10126000983ED4F3869577956795B795F795E7956A
:101270009F5FC1F7FE2B880F911D9695879597F973
:061280000895F894FFCF71
:1012860000000002000000006201000000000100F2
:10129600000007010001000120202020202300205B
:0A12A60047616D655F4F76657200C9
:00000001FF
