:100000000C9446000C9465000C9465000C946500FB
:100010000C9465000C9465000C9465000C946500CC
:100020000C9465000C9465000C9465000C946500BC
:100030000C9465000C94D9010C9465000C94650037
:100040000C9465000C9465000C9465000C9465009C
:100050000C9465000C9465000C9465000C9465008C
:100060000C9465000C9465000C9465000C9465007C
:100070000C9465000C9465000C9465000C9465006C
:100080000C9465000C9465000C94650011241FBE4F
:10009000CFEFD0E4DEBFCDBF11E0A0E0B1E0EEECE9
:1000A000FEE000E00BBF02C007900D92AC32B1073A
:1000B000D9F721E0ACE2B1E001C01D92AC34B20747
:1000C000E1F70E94BE050C9465070C940000CF93E5
:1000D000DF93CDB7DEB781E00E948E000000DF9194
:1000E000CF910895CF93DF93CDB7DEB784E690E04C
:1000F0000E94320188E30E948E0086E00E948E00FA
:100100008FE00E948E0081E00E948E008AE090E0E5
:100110000E9432010000DF91CF910895CF93DF93C9
:100120001F92CDB7DEB789838BE290E02BE230E0FF
:10013000F90120812F7BFC01208385E290E0298159
:10014000FC0120838BE290E02BE230E0F90120817A
:100150002068FC01208300008BE290E02BE230E07D
:10016000F90120812F77FC01208382E090E00E943A
:10017000320100000F90DF91CF910895CF93DF936C
:100180001F92CDB7DEB789838BE290E02BE230E09F
:10019000F90120812064FC01208385E290E029811F
:1001A000FC0120838BE290E02BE230E0F90120811A
:1001B0002068FC01208300008BE290E02BE230E01D
:1001C000F90120812F77FC01208381E090E00E94DB
:1001D000320100000F90DF91CF910895CF93DF930C
:1001E00000D000D0CDB7DEB78A837C836B830E94BA
:1001F00067008A81898311C0898191E0980F998372
:100200000E941B018B819C819C012F5F3F4F3C838F
:100210002B83FC0180810E94BE008B819C81FC01AC
:100220008081882349F700000F900F900F900F9066
:10023000DF91CF910895CF93DF931F92CDB7DEB7B3
:1002400089838981813128F4898181580E948E00B7
:1002500004C0898181550E948E0000000F90DF91BB
:10026000CF910895CF93DF9300D000D000D0CDB7C9
:10027000DEB79E838D831A82198213C01C821B8273
:1002800006C000008B819C8101969C838B838B81AF
:100290009C8187309340ACF389819A8101969A833F
:1002A000898329813A818D819E812817390734F30A
:1002B000000026960FB6F894DEBF0FBECDBFDF91CB
:1002C000CF910895CF93DF9300D01F92CDB7DEB7C3
:1002D00089837B836A8389818A3031F48A819B8117
:1002E000BC018DE00E94620180EC90E0FC01808105
:1002F000882F90E080729927892BB1F386EC90E0EB
:100300002981FC01208380E090E00F900F900F90F6
:10031000DF91CF910895CF93DF93CDB7DEB781E81A
:1003200090E02BE0FC01208388E890E02DE730E0AE
:10033000FC01318320838FE690E022E0FC012083E2
:1003400084E890E0FC011182108280910E0190916E
:100350000F01A0911001B091110180932D01909394
:100360002E01A0932F01B09330018FE590E02FE58F
:1003700030E0F90120812068FC0120830000DF913A
:10038000CF910895CF93DF93CDB7DEB781E890E0AA
:10039000FC0110820000DF91CF910895CF93DF938D
:1003A000CDB7DEB781E080932C010000DF91CF91C3
:1003B00008951F920F9200905F000F9211240090F9
:1003C0005B000F922F933F934F935F936F937F93B5
:1003D0008F939F93AF93BF93EF93FF93CF93DF934D
:1003E000CDB7DEB780912D0190912E01A0912F0104
:1003F000B09130010197A109B10980932D0190932B
:100400002E01A0932F01B093300180912D01909186
:100410002E01A0912F01B0913001892B8A2B8B2BBB
:1004200091F40E94CE0180910E0190910F01A09154
:100430001001B091110180932D0190932E01A09392
:100440002F01B09330010000DF91CF91FF91EF9128
:10045000BF91AF919F918F917F916F915F914F91DC
:100460003F912F910F9000925B000F9000925F00E0
:100470000F901F901895CF93DF9300D000D0CDB789
:10048000DEB769837A838B839C8389819A81AB8170
:10049000BC8180930E0190930F01A0931001B09343
:1004A000110180910E0190910F01A0911001B09166
:1004B000110180932D0190932E01A0932F01B093F1
:1004C000300100000F900F900F900F90DF91CF91AF
:1004D0000895CF93DF9300D01F92CDB7DEB7898305
:1004E0006A834B838B81882371F08A81282F30E0C7
:1004F00081E090E002C0880F991F2A95E2F7982FBB
:100500008981892B0EC08A81282F30E081E090E01C
:1005100002C0880F991F2A95E2F7982F909589813C
:1005200089230F900F900F90DF91CF910895CF9373
:10053000DF9300D0CDB7DEB789836A838A81282F05
:1005400030E081E090E002C0880F991F2A95E2F721
:10055000982F898189230F900F90DF91CF91089573
:100560000F931F93CF93DF93CDB7DEB708E210E070
:1005700040E064E08FEF0E946902F8018083000090
:1005800086E290E0FC018081809560E00E94970205
:10059000882311F081E3D3C086E290E0FC018081E2
:1005A000809561E00E949702882311F084E3C7C020
:1005B00086E290E0FC018081809562E00E949702D3
:1005C000882311F087E3BBC086E290E0FC018081C4
:1005D000809563E00E949702882311F08AE2AFC001
:1005E00008E210E040E065E08FEF0E946902F80148
:1005F0008083000086E290E0FC018081809560E0CD
:100600000E949702882311F082E399C086E290E06D
:10061000FC018081809561E00E949702882311F09F
:1006200085E38DC086E290E0FC018081809562E0E8
:100630000E949702882311F088E381C086E290E04F
:10064000FC018081809563E00E949702882311F06D
:1006500080E375C008E210E040E066E08FEF0E94A2
:100660006902F8018083000086E290E0FC0180814D
:10067000809560E00E949702882311F083E35FC0B9
:1006800086E290E0FC018081809561E00E94970203
:10069000882311F086E353C086E290E0FC0180815C
:1006A000809562E00E949702882311F089E347C099
:1006B00086E290E0FC018081809563E00E949702D1
:1006C000882311F083E23BC008E210E040E067E0DD
:1006D0008FEF0E946902F8018083000086E290E0BB
:1006E000FC018081809560E00E949702882311F0D0
:1006F00081E425C086E290E0FC018081809561E084
:100700000E949702882311F082E419C086E290E0EB
:10071000FC018081809562E00E949702882311F09D
:1007200083E40DC086E290E0FC018081809563E067
:100730000E949702882311F084E401C080E0DF91D9
:10074000CF911F910F910895CF93DF93CDB7DEB76F
:100750002C970FB6F894DEBF0FBECDBF6D837E839E
:100760008F83988729873A874B875C878D819E8105
:10077000AF81B88529853A854B855C85BC01CD0163
:100780000E944307DC01CB0189839A83AB83BC833E
:1007900089819A81AB81BC81892B8A2B8B2B29F48F
:1007A00089859A85AB85BC8511C089859A85AB857D
:1007B000BC858D839E83AF83B88789819A81AB8105
:1007C000BC8189879A87AB87BC87D0CFBC01CD011C
:1007D0002C960FB6F894DEBF0FBECDBFDF91CF9140
:1007E0000895CF93DF93CDB7DEB78AE790E02AE78D
:1007F00030E0F9012081206EFC0120830000DF91B0
:10080000CF910895CF93DF93CDB7DEB78CE790E01B
:1008100020E4FC0120838AE790E02AE730E0F90138
:1008200020812064FC01208300008AE790E0FC0125
:100830008081882F90E080719927892BB1F388E718
:1008400090E0FC0180819181DF91CF910895CF9359
:10085000DF93CDB7DEB78CE790E021E4FC01208385
:100860008AE790E02AE730E0F90120812064FC016A
:10087000208300008AE790E0FC018081882F90E0CF
:1008800080719927892BB1F388E790E0FC01808182
:100890009181DF91CF910895CF93DF9300D01F9284
:1008A000CDB7DEB79B838A830E94B00280934B0151
:1008B00086E290E0FC0180818095807E89838A8138
:1008C0009B818130910531F082309105F1F0892BC7
:1008D00071F026C08981803239F481E090E09B83F9
:1008E0008A8310924A011FC01B821A821CC0898110
:1008F000803241F482E090E09B838A8381E08093A0
:100900004A0111C01B821A820EC090914A0181E0F7
:10091000992309F480E0882F90E09B838A8303C0A9
:100920001B821A8200008A819B818130910509F423
:10093000BBC08230910509F4ACC0892B09F0B7C067
:1009400080911701882309F0B1C00E9427048F3ECF
:100950009240C0F08091480190914901892B31F07B
:100960008091480190914901409702C081E090E058
:1009700090934901809348018BE290E021E0FC01D3
:10098000208347C00E9402048E35914098F48091E4
:10099000480190914901809730F4809148019091ED
:1009A0004901409602C081E090E090934901809314
:1009B00048012FC00E9402048F3E924098F080911F
:1009C000480190914901892B31F080914801909123
:1009D0004901019702C081E090E090934901809322
:1009E000480117C00E9427048E35914090F48091F1
:1009F000480190914901809730F48091480190918D
:100A00004901019602C081E090E0909349018093F2
:100A1000480180911301909114010F9730F4809157
:100A2000130190911401019602C081E090E090932F
:100A300014018093130180911501909116010F9775
:100A400030F48091150190911601019602C081E069
:100A500090E0909316018093150180914801909148
:100A60004901019719F580911301909114010F9795
:100A7000E9F481E08093310181E090E090931401EA
:100A80008093130181E090E090931601809315010B
:100A90000DC09091170181E0992309F080E08093C7
:100AA00017011092310103C0000001C000008A81CB
:100AB0009B810F900F900F90DF91CF910895CF936E
:100AC000DF9300D0CDB7DEB79A83898389819A817D
:100AD000009719F0019731F008C081E090E09A8307
:100AE000898306C01A82198203C01A821982000003
:100AF00089819A81009719F00197E9F038C08091B7
:100B00003101882391F48091130190911401982F61
:100B100080E1891B68E171E00E94EE00809148014C
:100B2000909149010E941B0122C06AE171E081E0BD
:100B30000E94EE001CC080913101882391F48091C5
:100B4000150190911601982F80E2891B65E271E0F2
:100B50000E94EE0080914801909149010E941B0182
:100B600005C06AE171E081E00E94EE000000898129
:100B70009A810F900F90DF91CF9108950F931F935B
:100B8000CF93DF93CDB7DEB72F970FB6F894DEBFC4
:100B90000FBECDBF81E290E0FC01108282E290E0C6
:100BA0002FEFFC01208384E290E02FEFFC012083F3
:100BB00085E290E0FC01108287E290E0FC01108267
:100BC00088E290E02FEFFC0120838AE290E02FEF93
:100BD000FC0120838BE290E0FC0110820E947200F5
:100BE0000E94F10382E391E09D878C878DE391E081
:100BF0009F878E8782E090E09A8789878FEF8B8727
:100C00008B858093320188EC90E0A0E0B0E0809387
:100C1000330190933401A0933501B0933601809154
:100C2000330190913401A0913501B0913601809348
:100C3000370190933801A0933901B0933A018CE4C5
:100C400094E090933C0180933B018B8580933D0120
:100C500082E390E0A0E0B0E080933E0190933F01FA
:100C6000A0934001B093410180913E0190913F01DA
:100C7000A0914001B09141018093420190934301C2
:100C8000A0934401B09345018FE595E0909347010F
:100C9000809346018C859D85FC0181819281A38191
:100CA000B48189839A83AB83BC8381E090E09E8387
:100CB0008D8325C08D819E81880F991F9E012F5F96
:100CC0003F4F820F931F0B96FC0180819181FC01A5
:100CD000218132814381548189819A81AB81BC8198
:100CE000BC01CD010E94A403DC01CB0189839A835E
:100CF000AB83BC838D819E8101969E838D832D81E4
:100D00003E8189859A8528173907A0F289819A81C1
:100D1000AB81BC81BC01CD010E943B020E948B01D2
:100D200018861F82A0C08F819885880F991F9E0109
:100D30002F5F3F4F820F931F0B96FC0180819181A3
:100D4000FC0125813681478150858F819885880FE8
:100D5000991FBE016F5F7F4F860F971F0B96FC0197
:100D600080819181FC0181819281A381B4812817C6
:100D700039074A075B0709F045C08F819885880FBE
:100D8000991F9E012F5F3F4F820F931F0B96FC010F
:100D9000008111818F819885880F991F9E012F5F97
:100DA0003F4F820F931F0B96FC0180819181FC01C4
:100DB000218532858F819885880F991FAE014F5FFD
:100DC0005F4F840F951F0B96FC0180819181FC0180
:100DD0008081082E000C990BF9010995F801808398
:100DE0008F819885880F991F9E012F5F3F4F820F3B
:100DF000931F0B96FC0180819181FC011582168264
:100E0000178210868F819885880F991F9E012F5F0A
:100E10003F4F820F931F0B96FC01608171818F8180
:100E20009885880F991F9E012F5F3F4F820F931F58
:100E30000B96FC0180819181FC01258136814781DF
:100E4000508589819A81AB81BC81820F931FA41F39
:100E5000B51FFB0185839683A783B0878F81988513
:100E6000019698878F832F81388589859A852817E1
:100E7000390708F458CF000080912C018823E1F352
:100E800010922C014DCFA1E21A2EAA1BBB1BFD0113
:100E90000DC0AA1FBB1FEE1FFF1FA217B307E40759
:100EA000F50720F0A21BB30BE40BF50B661F771FB1
:100EB000881F991F1A9469F7609570958095909591
:0E0EC0009B01AC01BD01CF010895F894FFCF56
:100ECE0000000002000000006201000000000100AE
:100EDE00000007010001000123002047616D655FDE
:0C0EEE004F766572002020202020230099
:00000001FF
