:100000000C9446000C9465000C9465000C946500FB
:100010000C9465000C9465000C9465000C946500CC
:100020000C9465000C9465000C9465000C946500BC
:100030000C9465000C94D9010C9465000C94650037
:100040000C9465000C9465000C9465000C9465009C
:100050000C9465000C9465000C9465000C9465008C
:100060000C9465000C9465000C9465000C9465007C
:100070000C9465000C9465000C9465000C9465006C
:100080000C9465000C9465000C94650011241FBE4F
:10009000CFEFD0E4DEBFCDBF11E0A0E0B1E0ECE6F1
:1000A000F3E100E00BBF02C007900D92A831B10749
:1000B000D9F721E0A8E1B1E001C01D92A434B20754
:1000C000E1F70E9475060C94B4090C940000CF93DC
:1000D000DF93CDB7DEB781E00E948E000000DF9194
:1000E000CF910895CF93DF93CDB7DEB784E690E04C
:1000F0000E94320188E30E948E0086E00E948E00FA
:100100008FE00E948E0081E00E948E008AE090E0E5
:100110000E9432010000DF91CF910895CF93DF93C9
:100120001F92CDB7DEB789838BE290E02BE230E0FF
:10013000F90120812F7BFC01208385E290E0298159
:10014000FC0120838BE290E02BE230E0F90120817A
:100150002068FC01208300008BE290E02BE230E07D
:10016000F90120812F77FC01208382E090E00E943A
:10017000320100000F90DF91CF910895CF93DF936C
:100180001F92CDB7DEB789838BE290E02BE230E09F
:10019000F90120812064FC01208385E290E029811F
:1001A000FC0120838BE290E02BE230E0F90120811A
:1001B0002068FC01208300008BE290E02BE230E01D
:1001C000F90120812F77FC01208381E090E00E94DB
:1001D000320100000F90DF91CF910895CF93DF930C
:1001E00000D000D0CDB7DEB78A837C836B830E94BA
:1001F00067008A81898311C0898191E0980F998372
:100200000E941B018B819C819C012F5F3F4F3C838F
:100210002B83FC0180810E94BE008B819C81FC01AC
:100220008081882349F700000F900F900F900F9066
:10023000DF91CF910895CF93DF931F92CDB7DEB7B3
:1002400089838981813128F4898181580E948E00B7
:1002500004C0898181550E948E0000000F90DF91BB
:10026000CF910895CF93DF9300D000D000D0CDB7C9
:10027000DEB79E838D831A82198213C01C821B8273
:1002800006C000008B819C8101969C838B838B81AF
:100290009C8187309340ACF389819A8101969A833F
:1002A000898329813A818D819E812817390734F30A
:1002B000000026960FB6F894DEBF0FBECDBFDF91CB
:1002C000CF910895CF93DF9300D01F92CDB7DEB7C3
:1002D00089837B836A8389818A3031F48A819B8117
:1002E000BC018DE00E94620180EC90E0FC01808105
:1002F000882F90E080729927892BB1F386EC90E0EB
:100300002981FC01208380E090E00F900F900F90F6
:10031000DF91CF910895CF93DF93CDB7DEB781E81A
:1003200090E02BE0FC01208388E890E02DE730E0AE
:10033000FC01318320838FE690E022E0FC012083E2
:1003400084E890E0FC011182108280910E0190916E
:100350000F01A0911001B0911101809319019093A8
:100360001A01A0931B01B0931C018FE590E02FE5CB
:1003700030E0F90120812068FC0120830000DF913A
:10038000CF910895CF93DF93CDB7DEB781E890E0AA
:10039000FC0110820000DF91CF910895CF93DF938D
:1003A000CDB7DEB781E0809318010000DF91CF91D7
:1003B00008951F920F9200905F000F9211240090F9
:1003C0005B000F922F933F934F935F936F937F93B5
:1003D0008F939F93AF93BF93EF93FF93CF93DF934D
:1003E000CDB7DEB78091190190911A01A0911B0140
:1003F000B0911C010197A109B10980931901909353
:100400001A01A0931B01B0931C01809119019091D6
:100410001A01A0911B01B0911C01892B8A2B8B2BF7
:1004200091F40E94CE0180910E0190910F01A09154
:100430001001B09111018093190190931A01A093BA
:100440001B01B0931C010000DF91CF91FF91EF9150
:10045000BF91AF919F918F917F916F915F914F91DC
:100460003F912F910F9000925B000F9000925F00E0
:100470000F901F901895CF93DF9300D000D0CDB789
:10048000DEB769837A838B839C8389819A81AB8170
:10049000BC8180930E0190930F01A0931001B09343
:1004A000110180910E0190910F01A0911001B09166
:1004B00011018093190190931A01A0931B01B0932D
:1004C0001C0100000F900F900F900F90DF91CF91C3
:1004D0000895CF93DF9300D01F92CDB7DEB7898305
:1004E0006A834B838B81882371F08A81282F30E0C7
:1004F00081E090E002C0880F991F2A95E2F7982FBB
:100500008981892B0EC08A81282F30E081E090E01C
:1005100002C0880F991F2A95E2F7982F909589813C
:1005200089230F900F900F90DF91CF910895CF9373
:10053000DF9300D0CDB7DEB789836A838A81282F05
:1005400030E081E090E002C0880F991F2A95E2F721
:10055000982F898189230F900F90DF91CF91089573
:100560000F931F93CF93DF93CDB7DEB708E210E070
:1005700040E064E08FEF0E946902F8018083000090
:1005800086E290E0FC018081809560E00E94970205
:10059000882311F081E3D3C086E290E0FC018081E2
:1005A000809561E00E949702882311F084E3C7C020
:1005B00086E290E0FC018081809562E00E949702D3
:1005C000882311F087E3BBC086E290E0FC018081C4
:1005D000809563E00E949702882311F08AE2AFC001
:1005E00008E210E040E065E08FEF0E946902F80148
:1005F0008083000086E290E0FC018081809560E0CD
:100600000E949702882311F082E399C086E290E06D
:10061000FC018081809561E00E949702882311F09F
:1006200085E38DC086E290E0FC018081809562E0E8
:100630000E949702882311F088E381C086E290E04F
:10064000FC018081809563E00E949702882311F06D
:1006500080E375C008E210E040E066E08FEF0E94A2
:100660006902F8018083000086E290E0FC0180814D
:10067000809560E00E949702882311F083E35FC0B9
:1006800086E290E0FC018081809561E00E94970203
:10069000882311F086E353C086E290E0FC0180815C
:1006A000809562E00E949702882311F089E347C099
:1006B00086E290E0FC018081809563E00E949702D1
:1006C000882311F083E23BC008E210E040E067E0DD
:1006D0008FEF0E946902F8018083000086E290E0BB
:1006E000FC018081809560E00E949702882311F0D0
:1006F00081E425C086E290E0FC018081809561E084
:100700000E949702882311F082E419C086E290E0EB
:10071000FC018081809562E00E949702882311F09D
:1007200083E40DC086E290E0FC018081809563E067
:100730000E949702882311F084E401C080E0DF91D9
:10074000CF911F910F910895CF93DF93CDB7DEB76F
:100750002C970FB6F894DEBF0FBECDBF6D837E839E
:100760008F83988729873A874B875C878D819E8105
:10077000AF81B88529853A854B855C85BC01CD0163
:100780000E94FE07DC01CB0189839A83AB83BC8383
:1007900089819A81AB81BC81892B8A2B8B2B29F48F
:1007A00089859A85AB85BC8511C089859A85AB857D
:1007B000BC858D839E83AF83B88789819A81AB8105
:1007C000BC8189879A87AB87BC87D0CFBC01CD011C
:1007D0002C960FB6F894DEBF0FBECDBFDF91CF9140
:1007E0000895CF93DF93CDB7DEB78AE790E02AE78D
:1007F00030E0F9012081206EFC0120830000DF91B0
:10080000CF910895CF93DF93CDB7DEB78CE790E01B
:1008100020E4FC0120838AE790E02AE730E0F90138
:1008200020812064FC01208300008AE790E0FC0125
:100830008081882F90E080719927892BB1F388E718
:1008400090E0FC0180819181DF91CF910895CF9359
:10085000DF93CDB7DEB78CE790E021E4FC01208385
:100860008AE790E02AE730E0F90120812064FC016A
:10087000208300008AE790E0FC018081882F90E0CF
:1008800080719927892BB1F388E790E0FC01808182
:100890009181DF91CF9108950F931F93CF93DF93B1
:1008A00000D000D0CDB7DEB769837A838B839C8379
:1008B00080911F0190912001A0912101B09122010E
:1008C0009C01AD0169817A818B819C810E94200805
:1008D000882309F477C020E030E0A90169817A819A
:1008E0008B819C810E942008882351F481E990E04B
:1008F00021E930E0F90120812870FC01208309C042
:1009000081E990E021E930E0F90120812360FC01D8
:10091000208328E539E344E75FE369817A818B81AD
:100920009C810E942008882344F488E990E02FEFFE
:100930003FEFFC013183208334C020E034E244EFF8
:1009400056E469817A818B819C810E944209181644
:1009500034F488E990E0FC011182108222C008E999
:1009600010E020E030E040E053E469817A818B813F
:100970009C810E944709DC01CB019C01AD0160E034
:1009800074E284EF9AE40E942508DC01CB01BC01EB
:10099000CD010E949708DC01CB010197F8019183FA
:1009A000808384E990E0FC011182108289819A8120
:1009B000AB81BC8180931F0190932001A093210102
:1009C000B093220100000F900F900F900F90DF91D5
:1009D000CF911F910F910895CF93DF93CDB7DEB7DD
:1009E00080E990E020E4FC01208381E990E02BE0A5
:1009F000FC01208360E070E0CB010E944C04000009
:100A0000DF91CF910895CF93DF93CDB7DEB780E923
:100A100090E0FC01108281E990E0FC01108200006E
:100A2000DF91CF910895CF93DF93CDB7DEB781ECFF
:100A300090E021EC30E0F90120812861FC01208365
:100A400082EC90E022EC30E0F90120812660FC018C
:100A5000208384EC90E023E3FC01208385EC90E08C
:100A6000FC0110820000DF91CF910895CF93DF93B6
:100A7000CDB7DEB780EC90E0FC0180818072DF9121
:100A8000CF910895CF93DF93CDB7DEB780EC90E0A0
:100A9000FC0180818074DF91CF910895CF93DF9323
:100AA000CDB7DEB780EC90E0FC0180818078DF91EB
:100AB000CF910895CF93DF93CDB7DEB706C086EC14
:100AC00090E0FC0180818093230180EC90E0FC01A8
:100AD00080818823A4F30000DF91CF910895CF9304
:100AE000DF931F92CDB7DEB78983000080EC90E0E2
:100AF000FC018081882F90E080729927892BB1F3C7
:100B000086EC90E02981FC01208300000F90DF91AA
:100B1000CF910895CF93DF93CDB7DEB7000080EC7F
:100B200090E0FC0180818823D4F786EC90E0FC0102
:100B30008081DF91CF910895CF93DF9300D000D0D3
:100B4000CDB7DEB79C838B8386E290E0FC01808189
:100B50008095807E898390911E0181E0992309F020
:100B600080E080931E010E948A058A838B819C818C
:100B70008130910531F082309105F1F0892B71F0CF
:100B800026C08981803239F481E090E09C838B8398
:100B900010923D011FC01C821B821CC089818032C3
:100BA00041F482E090E09C838B8381E080933D015F
:100BB00011C01C821B820EC090913D0181E09923DF
:100BC00009F480E0882F90E09C838B8303C01C8213
:100BD0001B8200008B819C818130910509F448C003
:100BE00082309105B1F1892B09F043C08091170142
:100BF000882361F58A81863439F484E180933E014B
:100C000082E080933C0122C08A81823439F48AE0F8
:100C100080933E0184E080933C0118C08A818C342B
:100C200039F484E080933E0188E080933C010EC05B
:100C30008A81823539F480E180933E0181E080939E
:100C40003C0104C010923E0110923C010E945A05E2
:100C500010C09091170181E0992309F080E0809302
:100C6000170110921D0110923C0110923E0101C02B
:100C700000008B819C810F900F900F900F90DF915F
:100C8000CF910895CF93DF9300D0CDB7DEB79A838D
:100C9000898389819A81009719F0019721F006C014
:100CA0001A82198206C01A82198203C01A82198216
:100CB000000089819A81892B81F485E290E030914E
:100CC0003E0120911E01320F20911E012295220F1C
:100CD000207E230FFC01208301C0000089819A81BE
:100CE0000F900F90DF91CF9108950F931F93CF93A3
:100CF000DF93CDB7DEB72F970FB6F894DEBF0FBEE8
:100D0000CDBF81E290E0FC01108282E290E02FEF03
:100D1000FC01208384E290E02FEFFC01208385E238
:100D200090E0FC01108287E290E0FC01108288E2F2
:100D300090E02FEFFC0120838AE290E02FEFFC018E
:100D400020838BE290E0FC0110820E9472000E94DE
:100D5000F1030E94EC040E94130584E291E09D8758
:100D60008C878FE291E09F878E8782E090E09A8760
:100D700089878FEF8B878B858093240184E190E0B6
:100D8000A0E0B0E08093250190932601A093270175
:100D9000B09328018091250190912601A09127010F
:100DA000B09128018093290190932A01A0932B01EF
:100DB000B0932C018CE995E090932E0180932D0146
:100DC0008B8580932F018AE090E0A0E0B0E08093D3
:100DD000300190933101A0933201B093330180919F
:100DE000300190913101A0913201B0913301809393
:100DF000340190933501A0933601B093370182E41A
:100E000096E090933901809338018C859D85FC0193
:100E100081819281A381B48189839A83AB83BC83CE
:100E200081E090E09E838D8325C08D819E81880F17
:100E3000991F9E012F5F3F4F820F931F0B96FC015E
:100E400080819181FC01218132814381548189819A
:100E50009A81AB81BC81BC01CD010E94A403DC015D
:100E6000CB0189839A83AB83BC838D819E8101965C
:100E70009E838D832D813E8189859A852817390728
:100E8000A0F289819A81AB81BC81BC01CD010E9415
:100E90003B020E948B0118861F82A0C08F8198851B
:100EA000880F991F9E012F5F3F4F820F931F0B9654
:100EB000FC0180819181FC0125813681478150852B
:100EC0008F819885880F991FBE016F5F7F4F860FB6
:100ED000971F0B96FC0180819181FC018181928199
:100EE000A381B481281739074A075B0709F045C079
:100EF0008F819885880F991F9E012F5F3F4F820F2A
:100F0000931F0B96FC01008111818F819885880FBA
:100F1000991F9E012F5F3F4F820F931F0B96FC017D
:100F200080819181FC01218532858F819885880F90
:100F3000991FAE014F5F5F4F840F951F0B96FC0109
:100F400080819181FC018081082E000C990BF901B0
:100F50000995F80180838F819885880F991F9E01DC
:100F60002F5F3F4F820F931F0B96FC018081918171
:100F7000FC0115821682178210868F819885880F52
:100F8000991F9E012F5F3F4F820F931F0B96FC010D
:100F9000608171818F819885880F991F9E012F5FD5
:100FA0003F4F820F931F0B96FC0180819181FC01C2
:100FB000258136814781508589819A81AB81BC81A9
:100FC000820F931FA41FB51FFB0185839683A78300
:100FD000B0878F819885019698878F832F81388578
:100FE00089859A852817390708F458CF0000809121
:100FF00018018823E1F3109218014DCFA1E21A2EB7
:10100000AA1BBB1BFD010DC0AA1FBB1FEE1FFF1FAC
:10101000A217B307E407F50720F0A21BB30BE40BFC
:10102000F50B661F771F881F991F1A9469F7609543
:101030007095809590959B01AC01BD01CF010895FD
:101040000E94CD0808F481E008950E9439080C94AC
:1010500008090E94010958F00E94FA0840F029F49A
:101060005F3F29F00C94F10851110C943C090C9449
:10107000F7080E94190968F39923B1F3552391F3F6
:10108000951B550BBB27AA2762177307840738F0F7
:101090009F5F5F4F220F331F441FAA1FA9F335D054
:1010A0000E2E3AF0E0E832D091505040E695001C08
:1010B000CAF72BD0FE2F29D0660F771F881FBB1FC2
:1010C000261737074807AB07B0E809F0BB0B802DA0
:1010D000BF01FF2793585F4F3AF09E3F510578F0CC
:1010E0000C94F1080C943C095F3FE4F3983ED4F370
:1010F000869577956795B795F7959F5FC9F7880FA0
:10110000911D9695879597F90895E1E0660F771FF1
:10111000881FBB1F621773078407BA0720F0621B82
:10112000730B840BBA0BEE1F88F7E09508950E94AD
:101130009E086894B1110C943C0908950E942109FD
:1011400088F09F5798F0B92F9927B751B0F0E1F088
:10115000660F771F881F991F1AF0BA95C9F714C038
:10116000B13091F00E943B09B1E008950C943B0925
:10117000672F782F8827B85F39F0B93FCCF3869571
:1011800077956795B395D9F73EF4909580957095CE
:1011900061957F4F8F4F9F4F0895990F0008550F0E
:1011A000AA0BE0E8FEEF16161706E807F907C0F0ED
:1011B00012161306E407F50798F0621B730B840BF5
:1011C000950B39F40A2661F0232B242B252B21F4CF
:1011D00008950A2609F4A140A6958FEF811D811D6F
:1011E000089597F99F6780E870E060E008959FEFA9
:1011F00080EC089500240A941616170618060906AE
:10120000089500240A94121613061406050608957C
:10121000092E0394000C11F4882352F0BB0F40F404
:10122000BF2B11F460FF04C06F5F7F4F8F4F9F4F44
:10123000089557FD9058440F551F59F05F3F71F0C6
:101240004795880F97FB991F61F09F3F79F087952D
:101250000895121613061406551FF2CF4695F1DFB6
:1012600008C0161617061806991FF1CF8695710546
:10127000610508940895E894BB2766277727CB017A
:1012800097F908950E94CD0808F48FEF08950E9401
:101290005A090C9408090E94FA0838F00E940109C2
:1012A00020F0952311F00C94F1080C94F708112408
:1012B0000C943C090E94190970F3959FC1F3950F96
:1012C00050E0551F629FF001729FBB27F00DB11DCA
:1012D000639FAA27F00DB11DAA1F649F6627B00D5A
:1012E000A11D661F829F2227B00DA11D621F739F43
:1012F000B00DA11D621F839FA00D611D221F749F51
:101300003327A00D611D231F849F600D211D822F97
:10131000762F6A2F11249F5750409AF0F1F08823BE
:101320004AF0EE0FFF1FBB1F661F771F881F9150EB
:101330005040A9F79E3F510580F00C94F1080C94A1
:101340003C095F3FE4F3983ED4F386957795679523
:10135000B795F795E7959F5FC1F7FE2B880F911D15
:0C1360009695879597F90895F894FFCFB3
:10136C00000000020000000062010000000001000B
:08137C0000000701000100015F
:00000001FF
